{
  "_format": "hh-sol-artifact-1",
  "contractName": "DataConsumerV3",
  "sourceName": "contracts/PriceFeed.sol",
  "abi": [
    {
      "inputs": [
        {
          "internalType": "address",
          "name": "_oracleAddress",
          "type": "address"
        }
      ],
      "stateMutability": "nonpayable",
      "type": "constructor"
    },
    {
      "inputs": [],
      "name": "getLatestData",
      "outputs": [
        {
          "internalType": "int256",
          "name": "",
          "type": "int256"
        }
      ],
      "stateMutability": "view",
      "type": "function"
    }
  ],
  "bytecode": "0x608060405234801561001057600080fd5b50604051610469380380610469833981810160405281019061003291906100db565b806000806101000a81548173ffffffffffffffffffffffffffffffffffffffff021916908373ffffffffffffffffffffffffffffffffffffffff16021790555050610108565b600080fd5b600073ffffffffffffffffffffffffffffffffffffffff82169050919050565b60006100a88261007d565b9050919050565b6100b88161009d565b81146100c357600080fd5b50565b6000815190506100d5816100af565b92915050565b6000602082840312156100f1576100f0610078565b5b60006100ff848285016100c6565b91505092915050565b610352806101176000396000f3fe608060405234801561001057600080fd5b506004361061002b5760003560e01c8063ab757d6114610030575b600080fd5b61003861004e565b6040516100459190610115565b60405180910390f35b60008060008054906101000a900473ffffffffffffffffffffffffffffffffffffffff1673ffffffffffffffffffffffffffffffffffffffff1663feaf968c6040518163ffffffff1660e01b815260040160a060405180830381865afa1580156100bc573d6000803e3d6000fd5b505050506040513d601f19601f820116820180604052508101906100e091906101d9565b5050509150506305f5e100816100f691906102b2565b91505090565b6000819050919050565b61010f816100fc565b82525050565b600060208201905061012a6000830184610106565b92915050565b600080fd5b600069ffffffffffffffffffff82169050919050565b61015481610135565b811461015f57600080fd5b50565b6000815190506101718161014b565b92915050565b610180816100fc565b811461018b57600080fd5b50565b60008151905061019d81610177565b92915050565b6000819050919050565b6101b6816101a3565b81146101c157600080fd5b50565b6000815190506101d3816101ad565b92915050565b600080600080600060a086880312156101f5576101f4610130565b5b600061020388828901610162565b95505060206102148882890161018e565b9450506040610225888289016101c4565b9350506060610236888289016101c4565b925050608061024788828901610162565b9150509295509295909350565b7f4e487b7100000000000000000000000000000000000000000000000000000000600052601260045260246000fd5b7f4e487b7100000000000000000000000000000000000000000000000000000000600052601160045260246000fd5b60006102bd826100fc565b91506102c8836100fc565b9250826102d8576102d7610254565b5b600160000383147f80000000000000000000000000000000000000000000000000000000000000008314161561031157610310610283565b5b82820590509291505056fea2646970667358221220daf0b9ea9a28877587998ec4408fdd38effe8f7558edcba8781e92ff7437de3664736f6c63430008120033",
  "linkReferences": {},
  "deployedLinkReferences": {}
}