{
  "_format": "hh-sol-artifact-1",
  "contractName": "Stablecoin",
  "sourceName": "contracts/Stable_coin.sol",
  "abi": [
    {
      "inputs": [
        {
          "internalType": "address",
          "name": "_oracleDataFeedAddress",
          "type": "address"
        }
      ],
      "stateMutability": "nonpayable",
      "type": "constructor"
    },
    {
      "inputs": [],
      "name": "AccessControlUnauthorizedAccount",
      "type": "error"
    },
    {
      "inputs": [],
      "name": "InvalidETHprice",
      "type": "error"
    },
    {
      "inputs": [],
      "name": "MustBeGreaterThanZero",
      "type": "error"
    },
    {
      "inputs": [],
      "name": "TokenBalanceShouldBeDouble",
      "type": "error"
    },
    {
      "inputs": [],
      "name": "TrasanctionFailed",
      "type": "error"
    },
    {
      "anonymous": false,
      "inputs": [
        {
          "indexed": true,
          "internalType": "address",
          "name": "owner",
          "type": "address"
        },
        {
          "indexed": true,
          "internalType": "address",
          "name": "spender",
          "type": "address"
        },
        {
          "indexed": false,
          "internalType": "uint256",
          "name": "value",
          "type": "uint256"
        }
      ],
      "name": "Approval",
      "type": "event"
    },
    {
      "anonymous": false,
      "inputs": [
        {
          "indexed": true,
          "internalType": "address",
          "name": "from",
          "type": "address"
        },
        {
          "indexed": true,
          "internalType": "uint256",
          "name": "Colletal",
          "type": "uint256"
        },
        {
          "indexed": true,
          "internalType": "uint256",
          "name": "token",
          "type": "uint256"
        }
      ],
      "name": "Deposit",
      "type": "event"
    },
    {
      "anonymous": false,
      "inputs": [
        {
          "indexed": false,
          "internalType": "address",
          "name": "account",
          "type": "address"
        }
      ],
      "name": "Paused",
      "type": "event"
    },
    {
      "anonymous": false,
      "inputs": [
        {
          "indexed": true,
          "internalType": "address",
          "name": "to",
          "type": "address"
        },
        {
          "indexed": true,
          "internalType": "uint256",
          "name": "ethamount",
          "type": "uint256"
        },
        {
          "indexed": false,
          "internalType": "uint256",
          "name": "nusdAmount",
          "type": "uint256"
        }
      ],
      "name": "Redeem",
      "type": "event"
    },
    {
      "anonymous": false,
      "inputs": [
        {
          "indexed": true,
          "internalType": "bytes32",
          "name": "role",
          "type": "bytes32"
        },
        {
          "indexed": true,
          "internalType": "bytes32",
          "name": "previousAdminRole",
          "type": "bytes32"
        },
        {
          "indexed": true,
          "internalType": "bytes32",
          "name": "newAdminRole",
          "type": "bytes32"
        }
      ],
      "name": "RoleAdminChanged",
      "type": "event"
    },
    {
      "anonymous": false,
      "inputs": [
        {
          "indexed": true,
          "internalType": "bytes32",
          "name": "role",
          "type": "bytes32"
        },
        {
          "indexed": true,
          "internalType": "address",
          "name": "account",
          "type": "address"
        },
        {
          "indexed": true,
          "internalType": "address",
          "name": "sender",
          "type": "address"
        }
      ],
      "name": "RoleGranted",
      "type": "event"
    },
    {
      "anonymous": false,
      "inputs": [
        {
          "indexed": true,
          "internalType": "bytes32",
          "name": "role",
          "type": "bytes32"
        },
        {
          "indexed": true,
          "internalType": "address",
          "name": "account",
          "type": "address"
        },
        {
          "indexed": true,
          "internalType": "address",
          "name": "sender",
          "type": "address"
        }
      ],
      "name": "RoleRevoked",
      "type": "event"
    },
    {
      "anonymous": false,
      "inputs": [
        {
          "indexed": true,
          "internalType": "address",
          "name": "from",
          "type": "address"
        },
        {
          "indexed": true,
          "internalType": "address",
          "name": "to",
          "type": "address"
        },
        {
          "indexed": false,
          "internalType": "uint256",
          "name": "value",
          "type": "uint256"
        }
      ],
      "name": "Transfer",
      "type": "event"
    },
    {
      "anonymous": false,
      "inputs": [
        {
          "indexed": false,
          "internalType": "address",
          "name": "account",
          "type": "address"
        }
      ],
      "name": "Unpaused",
      "type": "event"
    },
    {
      "inputs": [],
      "name": "DEFAULT_ADMIN_ROLE",
      "outputs": [
        {
          "internalType": "bytes32",
          "name": "",
          "type": "bytes32"
        }
      ],
      "stateMutability": "view",
      "type": "function"
    },
    {
      "inputs": [],
      "name": "PAUSABLE_ROLE",
      "outputs": [
        {
          "internalType": "bytes32",
          "name": "",
          "type": "bytes32"
        }
      ],
      "stateMutability": "view",
      "type": "function"
    },
    {
      "inputs": [
        {
          "internalType": "address",
          "name": "owner",
          "type": "address"
        },
        {
          "internalType": "address",
          "name": "spender",
          "type": "address"
        }
      ],
      "name": "allowance",
      "outputs": [
        {
          "internalType": "uint256",
          "name": "",
          "type": "uint256"
        }
      ],
      "stateMutability": "view",
      "type": "function"
    },
    {
      "inputs": [
        {
          "internalType": "address",
          "name": "spender",
          "type": "address"
        },
        {
          "internalType": "uint256",
          "name": "amount",
          "type": "uint256"
        }
      ],
      "name": "approve",
      "outputs": [
        {
          "internalType": "bool",
          "name": "",
          "type": "bool"
        }
      ],
      "stateMutability": "nonpayable",
      "type": "function"
    },
    {
      "inputs": [
        {
          "internalType": "address",
          "name": "account",
          "type": "address"
        }
      ],
      "name": "balanceOf",
      "outputs": [
        {
          "internalType": "uint256",
          "name": "",
          "type": "uint256"
        }
      ],
      "stateMutability": "view",
      "type": "function"
    },
    {
      "inputs": [],
      "name": "decimals",
      "outputs": [
        {
          "internalType": "uint8",
          "name": "",
          "type": "uint8"
        }
      ],
      "stateMutability": "view",
      "type": "function"
    },
    {
      "inputs": [
        {
          "internalType": "address",
          "name": "spender",
          "type": "address"
        },
        {
          "internalType": "uint256",
          "name": "subtractedValue",
          "type": "uint256"
        }
      ],
      "name": "decreaseAllowance",
      "outputs": [
        {
          "internalType": "bool",
          "name": "",
          "type": "bool"
        }
      ],
      "stateMutability": "nonpayable",
      "type": "function"
    },
    {
      "inputs": [],
      "name": "deposit",
      "outputs": [],
      "stateMutability": "payable",
      "type": "function"
    },
    {
      "inputs": [
        {
          "internalType": "address",
          "name": "user",
          "type": "address"
        }
      ],
      "name": "getEthBalance",
      "outputs": [
        {
          "internalType": "uint256",
          "name": "",
          "type": "uint256"
        }
      ],
      "stateMutability": "view",
      "type": "function"
    },
    {
      "inputs": [],
      "name": "getEthPrice",
      "outputs": [
        {
          "internalType": "uint256",
          "name": "",
          "type": "uint256"
        }
      ],
      "stateMutability": "view",
      "type": "function"
    },
    {
      "inputs": [
        {
          "internalType": "address",
          "name": "user",
          "type": "address"
        }
      ],
      "name": "getNusdBalance",
      "outputs": [
        {
          "internalType": "uint256",
          "name": "",
          "type": "uint256"
        }
      ],
      "stateMutability": "view",
      "type": "function"
    },
    {
      "inputs": [
        {
          "internalType": "bytes32",
          "name": "role",
          "type": "bytes32"
        }
      ],
      "name": "getRoleAdmin",
      "outputs": [
        {
          "internalType": "bytes32",
          "name": "",
          "type": "bytes32"
        }
      ],
      "stateMutability": "view",
      "type": "function"
    },
    {
      "inputs": [
        {
          "internalType": "bytes32",
          "name": "role",
          "type": "bytes32"
        },
        {
          "internalType": "address",
          "name": "account",
          "type": "address"
        }
      ],
      "name": "grantRole",
      "outputs": [],
      "stateMutability": "nonpayable",
      "type": "function"
    },
    {
      "inputs": [
        {
          "internalType": "bytes32",
          "name": "role",
          "type": "bytes32"
        },
        {
          "internalType": "address",
          "name": "account",
          "type": "address"
        }
      ],
      "name": "hasRole",
      "outputs": [
        {
          "internalType": "bool",
          "name": "",
          "type": "bool"
        }
      ],
      "stateMutability": "view",
      "type": "function"
    },
    {
      "inputs": [
        {
          "internalType": "address",
          "name": "spender",
          "type": "address"
        },
        {
          "internalType": "uint256",
          "name": "addedValue",
          "type": "uint256"
        }
      ],
      "name": "increaseAllowance",
      "outputs": [
        {
          "internalType": "bool",
          "name": "",
          "type": "bool"
        }
      ],
      "stateMutability": "nonpayable",
      "type": "function"
    },
    {
      "inputs": [],
      "name": "name",
      "outputs": [
        {
          "internalType": "string",
          "name": "",
          "type": "string"
        }
      ],
      "stateMutability": "view",
      "type": "function"
    },
    {
      "inputs": [],
      "name": "pause",
      "outputs": [],
      "stateMutability": "nonpayable",
      "type": "function"
    },
    {
      "inputs": [],
      "name": "paused",
      "outputs": [
        {
          "internalType": "bool",
          "name": "",
          "type": "bool"
        }
      ],
      "stateMutability": "view",
      "type": "function"
    },
    {
      "inputs": [
        {
          "internalType": "uint256",
          "name": "nusdAmount",
          "type": "uint256"
        }
      ],
      "name": "redeem",
      "outputs": [],
      "stateMutability": "nonpayable",
      "type": "function"
    },
    {
      "inputs": [
        {
          "internalType": "bytes32",
          "name": "role",
          "type": "bytes32"
        },
        {
          "internalType": "address",
          "name": "account",
          "type": "address"
        }
      ],
      "name": "renounceRole",
      "outputs": [],
      "stateMutability": "nonpayable",
      "type": "function"
    },
    {
      "inputs": [
        {
          "internalType": "bytes32",
          "name": "role",
          "type": "bytes32"
        },
        {
          "internalType": "address",
          "name": "account",
          "type": "address"
        }
      ],
      "name": "revokeRole",
      "outputs": [],
      "stateMutability": "nonpayable",
      "type": "function"
    },
    {
      "inputs": [
        {
          "internalType": "bytes4",
          "name": "interfaceId",
          "type": "bytes4"
        }
      ],
      "name": "supportsInterface",
      "outputs": [
        {
          "internalType": "bool",
          "name": "",
          "type": "bool"
        }
      ],
      "stateMutability": "view",
      "type": "function"
    },
    {
      "inputs": [],
      "name": "symbol",
      "outputs": [
        {
          "internalType": "string",
          "name": "",
          "type": "string"
        }
      ],
      "stateMutability": "view",
      "type": "function"
    },
    {
      "inputs": [],
      "name": "totalSupply",
      "outputs": [
        {
          "internalType": "uint256",
          "name": "",
          "type": "uint256"
        }
      ],
      "stateMutability": "view",
      "type": "function"
    },
    {
      "inputs": [
        {
          "internalType": "address",
          "name": "to",
          "type": "address"
        },
        {
          "internalType": "uint256",
          "name": "amount",
          "type": "uint256"
        }
      ],
      "name": "transfer",
      "outputs": [
        {
          "internalType": "bool",
          "name": "",
          "type": "bool"
        }
      ],
      "stateMutability": "nonpayable",
      "type": "function"
    },
    {
      "inputs": [
        {
          "internalType": "address",
          "name": "from",
          "type": "address"
        },
        {
          "internalType": "address",
          "name": "to",
          "type": "address"
        },
        {
          "internalType": "uint256",
          "name": "amount",
          "type": "uint256"
        }
      ],
      "name": "transferFrom",
      "outputs": [
        {
          "internalType": "bool",
          "name": "",
          "type": "bool"
        }
      ],
      "stateMutability": "nonpayable",
      "type": "function"
    },
    {
      "inputs": [],
      "name": "unpause",
      "outputs": [],
      "stateMutability": "nonpayable",
      "type": "function"
    }
  ],
  "bytecode": "0x60a06040523480156200001157600080fd5b5060405162003467380380620034678339818101604052810190620000379190620003da565b6040518060400160405280600481526020017f6e555344000000000000000000000000000000000000000000000000000000008152506040518060400160405280600481526020017f6e5553440000000000000000000000000000000000000000000000000000000081525060016000819055506000600160006101000a81548160ff0219169083151502179055508160059081620000d7919062000686565b508060069081620000e9919062000686565b5050508073ffffffffffffffffffffffffffffffffffffffff1660808173ffffffffffffffffffffffffffffffffffffffff1681525050620001356000801b336200017160201b60201c565b6200016a7f09b6fca8f5f3ab2900d9586d1d15872611c1bd42b268b973ad886d4f2646b5606000801b6200018760201b60201c565b506200076d565b620001838282620001eb60201b60201c565b5050565b60006200019a83620002dd60201b60201c565b90508160076000858152602001908152602001600020600101819055508181847fbd79b86ffe0ab8e8776151514217cd7cacd52c909f66475c3af44e129f0b00ff60405160405180910390a4505050565b620001fd8282620002fd60201b60201c565b620002d95760016007600084815260200190815260200160002060000160008373ffffffffffffffffffffffffffffffffffffffff1673ffffffffffffffffffffffffffffffffffffffff16815260200190815260200160002060006101000a81548160ff0219169083151502179055506200027e6200036860201b60201c565b73ffffffffffffffffffffffffffffffffffffffff168173ffffffffffffffffffffffffffffffffffffffff16837f2f8788117e7eff1d82e926ec794901d17c78024a50270940304540a733656f0d60405160405180910390a45b5050565b600060076000838152602001908152602001600020600101549050919050565b60006007600084815260200190815260200160002060000160008373ffffffffffffffffffffffffffffffffffffffff1673ffffffffffffffffffffffffffffffffffffffff16815260200190815260200160002060009054906101000a900460ff16905092915050565b600033905090565b600080fd5b600073ffffffffffffffffffffffffffffffffffffffff82169050919050565b6000620003a28262000375565b9050919050565b620003b48162000395565b8114620003c057600080fd5b50565b600081519050620003d481620003a9565b92915050565b600060208284031215620003f357620003f262000370565b5b60006200040384828501620003c3565b91505092915050565b600081519050919050565b7f4e487b7100000000000000000000000000000000000000000000000000000000600052604160045260246000fd5b7f4e487b7100000000000000000000000000000000000000000000000000000000600052602260045260246000fd5b600060028204905060018216806200048e57607f821691505b602082108103620004a457620004a362000446565b5b50919050565b60008190508160005260206000209050919050565b60006020601f8301049050919050565b600082821b905092915050565b6000600883026200050e7fffffffffffffffffffffffffffffffffffffffffffffffffffffffffffffffff82620004cf565b6200051a8683620004cf565b95508019841693508086168417925050509392505050565b6000819050919050565b6000819050919050565b600062000567620005616200055b8462000532565b6200053c565b62000532565b9050919050565b6000819050919050565b620005838362000546565b6200059b62000592826200056e565b848454620004dc565b825550505050565b600090565b620005b2620005a3565b620005bf81848462000578565b505050565b5b81811015620005e757620005db600082620005a8565b600181019050620005c5565b5050565b601f82111562000636576200060081620004aa565b6200060b84620004bf565b810160208510156200061b578190505b620006336200062a85620004bf565b830182620005c4565b50505b505050565b600082821c905092915050565b60006200065b600019846008026200063b565b1980831691505092915050565b600062000676838362000648565b9150826002028217905092915050565b62000691826200040c565b67ffffffffffffffff811115620006ad57620006ac62000417565b5b620006b9825462000475565b620006c6828285620005eb565b600060209050601f831160018114620006fe5760008415620006e9578287015190505b620006f5858262000668565b86555062000765565b601f1984166200070e86620004aa565b60005b82811015620007385784890151825560018201915060208501945060208101905062000711565b8683101562000758578489015162000754601f89168262000648565b8355505b6001600288020188555050505b505050505050565b608051612cde6200078960003960006109e30152612cde6000f3fe60806040526004361061019c5760003560e01c80635c975abb116100ec578063a457c2d71161008a578063d0e30db011610064578063d0e30db014610618578063d547741f14610622578063db006a751461064b578063dd62ed3e146106745761019c565b8063a457c2d714610561578063a9059cbb1461059e578063cc767431146105db5761019c565b80638456cb59116100c65780638456cb59146104b757806391d14854146104ce57806395d89b411461050b578063a217fddf146105365761019c565b80635c975abb1461042457806367c9b0171461044f57806370a082311461047a5761019c565b8063248a9ca31161015957806336568abe1161013357806336568abe1461036a57806339509351146103935780633f4ba83a146103d05780634d2301cc146103e75761019c565b8063248a9ca3146102d95780632f2ff15d14610316578063313ce5671461033f5761019c565b806301ffc9a7146101a157806306fdde03146101de578063095ea7b3146102095780630ffd778e1461024657806318160ddd1461027157806323b872dd1461029c575b600080fd5b3480156101ad57600080fd5b506101c860048036038101906101c39190611efa565b6106b1565b6040516101d59190611f42565b60405180910390f35b3480156101ea57600080fd5b506101f361072b565b6040516102009190611fed565b60405180910390f35b34801561021557600080fd5b50610230600480360381019061022b91906120a3565b6107bd565b60405161023d9190611f42565b60405180910390f35b34801561025257600080fd5b5061025b6107e0565b60405161026891906120fc565b60405180910390f35b34801561027d57600080fd5b50610286610804565b6040516102939190612126565b60405180910390f35b3480156102a857600080fd5b506102c360048036038101906102be9190612141565b61080e565b6040516102d09190611f42565b60405180910390f35b3480156102e557600080fd5b5061030060048036038101906102fb91906121c0565b61083d565b60405161030d91906120fc565b60405180910390f35b34801561032257600080fd5b5061033d600480360381019061033891906121ed565b61085d565b005b34801561034b57600080fd5b5061035461087e565b6040516103619190612249565b60405180910390f35b34801561037657600080fd5b50610391600480360381019061038c91906121ed565b610887565b005b34801561039f57600080fd5b506103ba60048036038101906103b591906120a3565b61090a565b6040516103c79190611f42565b60405180910390f35b3480156103dc57600080fd5b506103e5610941565b005b3480156103f357600080fd5b5061040e60048036038101906104099190612264565b61097e565b60405161041b9190612126565b60405180910390f35b34801561043057600080fd5b506104396109c7565b6040516104469190611f42565b60405180910390f35b34801561045b57600080fd5b506104646109de565b6040516104719190612126565b60405180910390f35b34801561048657600080fd5b506104a1600480360381019061049c9190612264565b610ab3565b6040516104ae9190612126565b60405180910390f35b3480156104c357600080fd5b506104cc610afc565b005b3480156104da57600080fd5b506104f560048036038101906104f091906121ed565b610b39565b6040516105029190611f42565b60405180910390f35b34801561051757600080fd5b50610520610ba4565b60405161052d9190611fed565b60405180910390f35b34801561054257600080fd5b5061054b610c36565b60405161055891906120fc565b60405180910390f35b34801561056d57600080fd5b50610588600480360381019061058391906120a3565b610c3d565b6040516105959190611f42565b60405180910390f35b3480156105aa57600080fd5b506105c560048036038101906105c091906120a3565b610cb4565b6040516105d29190611f42565b60405180910390f35b3480156105e757600080fd5b5061060260048036038101906105fd9190612264565b610cd7565b60405161060f9190612126565b60405180910390f35b610620610d20565b005b34801561062e57600080fd5b50610649600480360381019061064491906121ed565b610eb7565b005b34801561065757600080fd5b50610672600480360381019061066d9190612291565b610ed8565b005b34801561068057600080fd5b5061069b600480360381019061069691906122be565b61119a565b6040516106a89190612126565b60405180910390f35b60007f7965db0b000000000000000000000000000000000000000000000000000000007bffffffffffffffffffffffffffffffffffffffffffffffffffffffff1916827bffffffffffffffffffffffffffffffffffffffffffffffffffffffff19161480610724575061072382611221565b5b9050919050565b60606005805461073a9061232d565b80601f01602080910402602001604051908101604052809291908181526020018280546107669061232d565b80156107b35780601f10610788576101008083540402835291602001916107b3565b820191906000526020600020905b81548152906001019060200180831161079657829003601f168201915b5050505050905090565b6000806107c861128b565b90506107d5818585611293565b600191505092915050565b7f09b6fca8f5f3ab2900d9586d1d15872611c1bd42b268b973ad886d4f2646b56081565b6000600454905090565b60008061081961128b565b905061082685828561145c565b6108318585856114e8565b60019150509392505050565b600060076000838152602001908152602001600020600101549050919050565b6108668261083d565b61086f81611761565b6108798383611775565b505050565b60006012905090565b61088f61128b565b73ffffffffffffffffffffffffffffffffffffffff168173ffffffffffffffffffffffffffffffffffffffff16146108fc576040517f08c379a00000000000000000000000000000000000000000000000000000000081526004016108f3906123d0565b60405180910390fd5b6109068282611856565b5050565b60008061091561128b565b9050610936818585610927858961119a565b610931919061241f565b611293565b600191505092915050565b7f09b6fca8f5f3ab2900d9586d1d15872611c1bd42b268b973ad886d4f2646b56061096b81611761565b610973611938565b61097b611981565b50565b6000600860008373ffffffffffffffffffffffffffffffffffffffff1673ffffffffffffffffffffffffffffffffffffffff168152602001908152602001600020549050919050565b6000600160009054906101000a900460ff16905090565b6000807f000000000000000000000000000000000000000000000000000000000000000073ffffffffffffffffffffffffffffffffffffffff1663ab757d616040518163ffffffff1660e01b8152600401602060405180830381865afa158015610a4c573d6000803e3d6000fd5b505050506040513d601f19601f82011682018060405250810190610a709190612489565b905060008113610aac576040517f464190ae00000000000000000000000000000000000000000000000000000000815260040160405180910390fd5b8091505090565b6000600260008373ffffffffffffffffffffffffffffffffffffffff1673ffffffffffffffffffffffffffffffffffffffff168152602001908152602001600020549050919050565b7f09b6fca8f5f3ab2900d9586d1d15872611c1bd42b268b973ad886d4f2646b560610b2681611761565b610b2e6119e4565b610b36611a2e565b50565b60006007600084815260200190815260200160002060000160008373ffffffffffffffffffffffffffffffffffffffff1673ffffffffffffffffffffffffffffffffffffffff16815260200190815260200160002060009054906101000a900460ff16905092915050565b606060068054610bb39061232d565b80601f0160208091040260200160405190810160405280929190818152602001828054610bdf9061232d565b8015610c2c5780601f10610c0157610100808354040283529160200191610c2c565b820191906000526020600020905b815481529060010190602001808311610c0f57829003601f168201915b5050505050905090565b6000801b81565b600080610c4861128b565b90506000610c56828661119a565b905083811015610c9b576040517f08c379a0000000000000000000000000000000000000000000000000000000008152600401610c9290612528565b60405180910390fd5b610ca88286868403611293565b60019250505092915050565b600080610cbf61128b565b9050610ccc8185856114e8565b600191505092915050565b6000600960008373ffffffffffffffffffffffffffffffffffffffff1673ffffffffffffffffffffffffffffffffffffffff168152602001908152602001600020549050919050565b610d286119e4565b60003411610d62576040517fc065426400000000000000000000000000000000000000000000000000000000815260040160405180910390fd5b6000610d6c6109de565b90506000610d9d670de0b6b3a7640000610d8f3485611a9090919063ffffffff16565b611aa690919063ffffffff16565b90506000610db5600283611aa690919063ffffffff16565b905034600860003373ffffffffffffffffffffffffffffffffffffffff1673ffffffffffffffffffffffffffffffffffffffff1681526020019081526020016000206000828254610e06919061241f565b9250508190555080600960003373ffffffffffffffffffffffffffffffffffffffff1673ffffffffffffffffffffffffffffffffffffffff1681526020019081526020016000206000828254610e5c919061241f565b92505081905550610e6d3382611abc565b80343373ffffffffffffffffffffffffffffffffffffffff167f90890809c654f11d6e72a28fa60149770a0d11ec6c92319d6ceb2bb0a4ea1a1560405160405180910390a4505050565b610ec08261083d565b610ec981611761565b610ed38383611856565b505050565b610ee0611c13565b610ee86119e4565b60008111610f22576040517fc065426400000000000000000000000000000000000000000000000000000000815260040160405180910390fd5b600281610f2f9190612548565b600960003373ffffffffffffffffffffffffffffffffffffffff1673ffffffffffffffffffffffffffffffffffffffff168152602001908152602001600020541015610fa7576040517f3be2d82800000000000000000000000000000000000000000000000000000000815260040160405180910390fd5b6000670de0b6b3a764000090506000610fe2610fc16109de565b610fd48585611a9090919063ffffffff16565b611aa690919063ffffffff16565b905082600960003373ffffffffffffffffffffffffffffffffffffffff1673ffffffffffffffffffffffffffffffffffffffff1681526020019081526020016000206000828254611033919061258a565b925050819055506110443384611c62565b80600860003373ffffffffffffffffffffffffffffffffffffffff1673ffffffffffffffffffffffffffffffffffffffff1681526020019081526020016000206000828254611093919061258a565b9250508190555060003373ffffffffffffffffffffffffffffffffffffffff16826040516110c0906125ef565b60006040518083038185875af1925050503d80600081146110fd576040519150601f19603f3d011682016040523d82523d6000602084013e611102565b606091505b505090508061113d576040517f60b3c9aa00000000000000000000000000000000000000000000000000000000815260040160405180910390fd5b813373ffffffffffffffffffffffffffffffffffffffff167fe5b754fb1abb7f01b499791d0b820ae3b6af3424ac1c59768edb53f4ec31a929866040516111849190612126565b60405180910390a3505050611197611e31565b50565b6000600360008473ffffffffffffffffffffffffffffffffffffffff1673ffffffffffffffffffffffffffffffffffffffff16815260200190815260200160002060008373ffffffffffffffffffffffffffffffffffffffff1673ffffffffffffffffffffffffffffffffffffffff16815260200190815260200160002054905092915050565b60007f01ffc9a7000000000000000000000000000000000000000000000000000000007bffffffffffffffffffffffffffffffffffffffffffffffffffffffff1916827bffffffffffffffffffffffffffffffffffffffffffffffffffffffff1916149050919050565b600033905090565b600073ffffffffffffffffffffffffffffffffffffffff168373ffffffffffffffffffffffffffffffffffffffff1603611302576040517f08c379a00000000000000000000000000000000000000000000000000000000081526004016112f990612676565b60405180910390fd5b600073ffffffffffffffffffffffffffffffffffffffff168273ffffffffffffffffffffffffffffffffffffffff1603611371576040517f08c379a000000000000000000000000000000000000000000000000000000000815260040161136890612708565b60405180910390fd5b80600360008573ffffffffffffffffffffffffffffffffffffffff1673ffffffffffffffffffffffffffffffffffffffff16815260200190815260200160002060008473ffffffffffffffffffffffffffffffffffffffff1673ffffffffffffffffffffffffffffffffffffffff168152602001908152602001600020819055508173ffffffffffffffffffffffffffffffffffffffff168373ffffffffffffffffffffffffffffffffffffffff167f8c5be1e5ebec7d5bd14f71427d1e84f3dd0314c0f7b2291e5b200ac8c7c3b9258360405161144f9190612126565b60405180910390a3505050565b6000611468848461119a565b90507fffffffffffffffffffffffffffffffffffffffffffffffffffffffffffffffff81146114e257818110156114d4576040517f08c379a00000000000000000000000000000000000000000000000000000000081526004016114cb90612774565b60405180910390fd5b6114e18484848403611293565b5b50505050565b600073ffffffffffffffffffffffffffffffffffffffff168373ffffffffffffffffffffffffffffffffffffffff1603611557576040517f08c379a000000000000000000000000000000000000000000000000000000000815260040161154e90612806565b60405180910390fd5b600073ffffffffffffffffffffffffffffffffffffffff168273ffffffffffffffffffffffffffffffffffffffff16036115c6576040517f08c379a00000000000000000000000000000000000000000000000000000000081526004016115bd90612898565b60405180910390fd5b6115d1838383611e3b565b6000600260008573ffffffffffffffffffffffffffffffffffffffff1673ffffffffffffffffffffffffffffffffffffffff16815260200190815260200160002054905081811015611658576040517f08c379a000000000000000000000000000000000000000000000000000000000815260040161164f9061292a565b60405180910390fd5b818103600260008673ffffffffffffffffffffffffffffffffffffffff1673ffffffffffffffffffffffffffffffffffffffff1681526020019081526020016000208190555081600260008573ffffffffffffffffffffffffffffffffffffffff1673ffffffffffffffffffffffffffffffffffffffff168152602001908152602001600020600082825401925050819055508273ffffffffffffffffffffffffffffffffffffffff168473ffffffffffffffffffffffffffffffffffffffff167fddf252ad1be2c89b69c2b068fc378daa952ba7f163c4a11628f55a4df523b3ef846040516117489190612126565b60405180910390a361175b848484611e40565b50505050565b6117728161176d61128b565b611e45565b50565b61177f8282610b39565b6118525760016007600084815260200190815260200160002060000160008373ffffffffffffffffffffffffffffffffffffffff1673ffffffffffffffffffffffffffffffffffffffff16815260200190815260200160002060006101000a81548160ff0219169083151502179055506117f761128b565b73ffffffffffffffffffffffffffffffffffffffff168173ffffffffffffffffffffffffffffffffffffffff16837f2f8788117e7eff1d82e926ec794901d17c78024a50270940304540a733656f0d60405160405180910390a45b5050565b6118608282610b39565b156119345760006007600084815260200190815260200160002060000160008373ffffffffffffffffffffffffffffffffffffffff1673ffffffffffffffffffffffffffffffffffffffff16815260200190815260200160002060006101000a81548160ff0219169083151502179055506118d961128b565b73ffffffffffffffffffffffffffffffffffffffff168173ffffffffffffffffffffffffffffffffffffffff16837ff6391f5c32d9c69d2a47ea670b442974b53935d1edc7fd64eb21e047a839171b60405160405180910390a45b5050565b6119406109c7565b61197f576040517f08c379a000000000000000000000000000000000000000000000000000000000815260040161197690612996565b60405180910390fd5b565b611989611938565b6000600160006101000a81548160ff0219169083151502179055507f5db9ee0a495bf2e6ff9c91a7834c1ba4fdd244a5e8aa4e537bd38aeae4b073aa6119cd61128b565b6040516119da91906129c5565b60405180910390a1565b6119ec6109c7565b15611a2c576040517f08c379a0000000000000000000000000000000000000000000000000000000008152600401611a2390612a2c565b60405180910390fd5b565b611a366119e4565b60018060006101000a81548160ff0219169083151502179055507f62e78cea01bee320cd4e420270b5ea74000d11b0c9f74754ebdbfc544b05a258611a7961128b565b604051611a8691906129c5565b60405180910390a1565b60008183611a9e9190612548565b905092915050565b60008183611ab49190612a7b565b905092915050565b600073ffffffffffffffffffffffffffffffffffffffff168273ffffffffffffffffffffffffffffffffffffffff1603611b2b576040517f08c379a0000000000000000000000000000000000000000000000000000000008152600401611b2290612af8565b60405180910390fd5b611b3760008383611e3b565b8060046000828254611b49919061241f565b9250508190555080600260008473ffffffffffffffffffffffffffffffffffffffff1673ffffffffffffffffffffffffffffffffffffffff168152602001908152602001600020600082825401925050819055508173ffffffffffffffffffffffffffffffffffffffff16600073ffffffffffffffffffffffffffffffffffffffff167fddf252ad1be2c89b69c2b068fc378daa952ba7f163c4a11628f55a4df523b3ef83604051611bfb9190612126565b60405180910390a3611c0f60008383611e40565b5050565b600260005403611c58576040517f08c379a0000000000000000000000000000000000000000000000000000000008152600401611c4f90612b64565b60405180910390fd5b6002600081905550565b600073ffffffffffffffffffffffffffffffffffffffff168273ffffffffffffffffffffffffffffffffffffffff1603611cd1576040517f08c379a0000000000000000000000000000000000000000000000000000000008152600401611cc890612bf6565b60405180910390fd5b611cdd82600083611e3b565b6000600260008473ffffffffffffffffffffffffffffffffffffffff1673ffffffffffffffffffffffffffffffffffffffff16815260200190815260200160002054905081811015611d64576040517f08c379a0000000000000000000000000000000000000000000000000000000008152600401611d5b90612c88565b60405180910390fd5b818103600260008573ffffffffffffffffffffffffffffffffffffffff1673ffffffffffffffffffffffffffffffffffffffff1681526020019081526020016000208190555081600460008282540392505081905550600073ffffffffffffffffffffffffffffffffffffffff168373ffffffffffffffffffffffffffffffffffffffff167fddf252ad1be2c89b69c2b068fc378daa952ba7f163c4a11628f55a4df523b3ef84604051611e189190612126565b60405180910390a3611e2c83600084611e40565b505050565b6001600081905550565b505050565b505050565b611e4f8282610b39565b80611e635750611e626000801b82610b39565b5b611e99576040517fc7f768db00000000000000000000000000000000000000000000000000000000815260040160405180910390fd5b5050565b600080fd5b60007fffffffff0000000000000000000000000000000000000000000000000000000082169050919050565b611ed781611ea2565b8114611ee257600080fd5b50565b600081359050611ef481611ece565b92915050565b600060208284031215611f1057611f0f611e9d565b5b6000611f1e84828501611ee5565b91505092915050565b60008115159050919050565b611f3c81611f27565b82525050565b6000602082019050611f576000830184611f33565b92915050565b600081519050919050565b600082825260208201905092915050565b60005b83811015611f97578082015181840152602081019050611f7c565b60008484015250505050565b6000601f19601f8301169050919050565b6000611fbf82611f5d565b611fc98185611f68565b9350611fd9818560208601611f79565b611fe281611fa3565b840191505092915050565b600060208201905081810360008301526120078184611fb4565b905092915050565b600073ffffffffffffffffffffffffffffffffffffffff82169050919050565b600061203a8261200f565b9050919050565b61204a8161202f565b811461205557600080fd5b50565b60008135905061206781612041565b92915050565b6000819050919050565b6120808161206d565b811461208b57600080fd5b50565b60008135905061209d81612077565b92915050565b600080604083850312156120ba576120b9611e9d565b5b60006120c885828601612058565b92505060206120d98582860161208e565b9150509250929050565b6000819050919050565b6120f6816120e3565b82525050565b600060208201905061211160008301846120ed565b92915050565b6121208161206d565b82525050565b600060208201905061213b6000830184612117565b92915050565b60008060006060848603121561215a57612159611e9d565b5b600061216886828701612058565b935050602061217986828701612058565b925050604061218a8682870161208e565b9150509250925092565b61219d816120e3565b81146121a857600080fd5b50565b6000813590506121ba81612194565b92915050565b6000602082840312156121d6576121d5611e9d565b5b60006121e4848285016121ab565b91505092915050565b6000806040838503121561220457612203611e9d565b5b6000612212858286016121ab565b925050602061222385828601612058565b9150509250929050565b600060ff82169050919050565b6122438161222d565b82525050565b600060208201905061225e600083018461223a565b92915050565b60006020828403121561227a57612279611e9d565b5b600061228884828501612058565b91505092915050565b6000602082840312156122a7576122a6611e9d565b5b60006122b58482850161208e565b91505092915050565b600080604083850312156122d5576122d4611e9d565b5b60006122e385828601612058565b92505060206122f485828601612058565b9150509250929050565b7f4e487b7100000000000000000000000000000000000000000000000000000000600052602260045260246000fd5b6000600282049050600182168061234557607f821691505b602082108103612358576123576122fe565b5b50919050565b7f416363657373436f6e74726f6c3a2063616e206f6e6c792072656e6f756e636560008201527f20726f6c657320666f722073656c660000000000000000000000000000000000602082015250565b60006123ba602f83611f68565b91506123c58261235e565b604082019050919050565b600060208201905081810360008301526123e9816123ad565b9050919050565b7f4e487b7100000000000000000000000000000000000000000000000000000000600052601160045260246000fd5b600061242a8261206d565b91506124358361206d565b925082820190508082111561244d5761244c6123f0565b5b92915050565b6000819050919050565b61246681612453565b811461247157600080fd5b50565b6000815190506124838161245d565b92915050565b60006020828403121561249f5761249e611e9d565b5b60006124ad84828501612474565b91505092915050565b7f45524332303a2064656372656173656420616c6c6f77616e63652062656c6f7760008201527f207a65726f000000000000000000000000000000000000000000000000000000602082015250565b6000612512602583611f68565b915061251d826124b6565b604082019050919050565b6000602082019050818103600083015261254181612505565b9050919050565b60006125538261206d565b915061255e8361206d565b925082820261256c8161206d565b91508282048414831517612583576125826123f0565b5b5092915050565b60006125958261206d565b91506125a08361206d565b92508282039050818111156125b8576125b76123f0565b5b92915050565b600081905092915050565b50565b60006125d96000836125be565b91506125e4826125c9565b600082019050919050565b60006125fa826125cc565b9150819050919050565b7f45524332303a20617070726f76652066726f6d20746865207a65726f2061646460008201527f7265737300000000000000000000000000000000000000000000000000000000602082015250565b6000612660602483611f68565b915061266b82612604565b604082019050919050565b6000602082019050818103600083015261268f81612653565b9050919050565b7f45524332303a20617070726f766520746f20746865207a65726f20616464726560008201527f7373000000000000000000000000000000000000000000000000000000000000602082015250565b60006126f2602283611f68565b91506126fd82612696565b604082019050919050565b60006020820190508181036000830152612721816126e5565b9050919050565b7f45524332303a20696e73756666696369656e7420616c6c6f77616e6365000000600082015250565b600061275e601d83611f68565b915061276982612728565b602082019050919050565b6000602082019050818103600083015261278d81612751565b9050919050565b7f45524332303a207472616e736665722066726f6d20746865207a65726f20616460008201527f6472657373000000000000000000000000000000000000000000000000000000602082015250565b60006127f0602583611f68565b91506127fb82612794565b604082019050919050565b6000602082019050818103600083015261281f816127e3565b9050919050565b7f45524332303a207472616e7366657220746f20746865207a65726f206164647260008201527f6573730000000000000000000000000000000000000000000000000000000000602082015250565b6000612882602383611f68565b915061288d82612826565b604082019050919050565b600060208201905081810360008301526128b181612875565b9050919050565b7f45524332303a207472616e7366657220616d6f756e742065786365656473206260008201527f616c616e63650000000000000000000000000000000000000000000000000000602082015250565b6000612914602683611f68565b915061291f826128b8565b604082019050919050565b6000602082019050818103600083015261294381612907565b9050919050565b7f5061757361626c653a206e6f7420706175736564000000000000000000000000600082015250565b6000612980601483611f68565b915061298b8261294a565b602082019050919050565b600060208201905081810360008301526129af81612973565b9050919050565b6129bf8161202f565b82525050565b60006020820190506129da60008301846129b6565b92915050565b7f5061757361626c653a2070617573656400000000000000000000000000000000600082015250565b6000612a16601083611f68565b9150612a21826129e0565b602082019050919050565b60006020820190508181036000830152612a4581612a09565b9050919050565b7f4e487b7100000000000000000000000000000000000000000000000000000000600052601260045260246000fd5b6000612a868261206d565b9150612a918361206d565b925082612aa157612aa0612a4c565b5b828204905092915050565b7f45524332303a206d696e7420746f20746865207a65726f206164647265737300600082015250565b6000612ae2601f83611f68565b9150612aed82612aac565b602082019050919050565b60006020820190508181036000830152612b1181612ad5565b9050919050565b7f5265656e7472616e637947756172643a207265656e7472616e742063616c6c00600082015250565b6000612b4e601f83611f68565b9150612b5982612b18565b602082019050919050565b60006020820190508181036000830152612b7d81612b41565b9050919050565b7f45524332303a206275726e2066726f6d20746865207a65726f2061646472657360008201527f7300000000000000000000000000000000000000000000000000000000000000602082015250565b6000612be0602183611f68565b9150612beb82612b84565b604082019050919050565b60006020820190508181036000830152612c0f81612bd3565b9050919050565b7f45524332303a206275726e20616d6f756e7420657863656564732062616c616e60008201527f6365000000000000000000000000000000000000000000000000000000000000602082015250565b6000612c72602283611f68565b9150612c7d82612c16565b604082019050919050565b60006020820190508181036000830152612ca181612c65565b905091905056fea2646970667358221220cfdede6a192d7543bcb8c7940bfe5d825e862f9e45c0dfbc1819d8c9c0b6e58864736f6c63430008120033",
  "linkReferences": {},
  "deployedLinkReferences": {}
}