{
  "_format": "hh-sol-artifact-1",
  "contractName": "Stablecoin",
  "sourceName": "contracts/Stable_coin.sol",
  "abi": [
    {
      "inputs": [
        {
          "internalType": "address",
          "name": "_oracleDataFeedAddress",
          "type": "address"
        }
      ],
      "stateMutability": "nonpayable",
      "type": "constructor"
    },
    {
      "inputs": [],
      "name": "MustBeGreaterThanZero",
      "type": "error"
    },
    {
      "inputs": [],
      "name": "TokenBalanceShouldBeDouble",
      "type": "error"
    },
    {
      "inputs": [],
      "name": "TrasanctionFailed",
      "type": "error"
    },
    {
      "anonymous": false,
      "inputs": [
        {
          "indexed": true,
          "internalType": "address",
          "name": "owner",
          "type": "address"
        },
        {
          "indexed": true,
          "internalType": "address",
          "name": "spender",
          "type": "address"
        },
        {
          "indexed": false,
          "internalType": "uint256",
          "name": "value",
          "type": "uint256"
        }
      ],
      "name": "Approval",
      "type": "event"
    },
    {
      "anonymous": false,
      "inputs": [
        {
          "indexed": true,
          "internalType": "address",
          "name": "from",
          "type": "address"
        },
        {
          "indexed": true,
          "internalType": "uint256",
          "name": "Colletal",
          "type": "uint256"
        },
        {
          "indexed": true,
          "internalType": "uint256",
          "name": "token",
          "type": "uint256"
        }
      ],
      "name": "Deposit",
      "type": "event"
    },
    {
      "anonymous": false,
      "inputs": [
        {
          "indexed": true,
          "internalType": "address",
          "name": "to",
          "type": "address"
        },
        {
          "indexed": true,
          "internalType": "uint256",
          "name": "ethamount",
          "type": "uint256"
        },
        {
          "indexed": false,
          "internalType": "uint256",
          "name": "nusdAmount",
          "type": "uint256"
        }
      ],
      "name": "Redeem",
      "type": "event"
    },
    {
      "anonymous": false,
      "inputs": [
        {
          "indexed": true,
          "internalType": "address",
          "name": "from",
          "type": "address"
        },
        {
          "indexed": true,
          "internalType": "address",
          "name": "to",
          "type": "address"
        },
        {
          "indexed": false,
          "internalType": "uint256",
          "name": "value",
          "type": "uint256"
        }
      ],
      "name": "Transfer",
      "type": "event"
    },
    {
      "inputs": [
        {
          "internalType": "address",
          "name": "owner",
          "type": "address"
        },
        {
          "internalType": "address",
          "name": "spender",
          "type": "address"
        }
      ],
      "name": "allowance",
      "outputs": [
        {
          "internalType": "uint256",
          "name": "",
          "type": "uint256"
        }
      ],
      "stateMutability": "view",
      "type": "function"
    },
    {
      "inputs": [
        {
          "internalType": "address",
          "name": "spender",
          "type": "address"
        },
        {
          "internalType": "uint256",
          "name": "amount",
          "type": "uint256"
        }
      ],
      "name": "approve",
      "outputs": [
        {
          "internalType": "bool",
          "name": "",
          "type": "bool"
        }
      ],
      "stateMutability": "nonpayable",
      "type": "function"
    },
    {
      "inputs": [
        {
          "internalType": "address",
          "name": "account",
          "type": "address"
        }
      ],
      "name": "balanceOf",
      "outputs": [
        {
          "internalType": "uint256",
          "name": "",
          "type": "uint256"
        }
      ],
      "stateMutability": "view",
      "type": "function"
    },
    {
      "inputs": [],
      "name": "decimals",
      "outputs": [
        {
          "internalType": "uint8",
          "name": "",
          "type": "uint8"
        }
      ],
      "stateMutability": "view",
      "type": "function"
    },
    {
      "inputs": [
        {
          "internalType": "address",
          "name": "spender",
          "type": "address"
        },
        {
          "internalType": "uint256",
          "name": "subtractedValue",
          "type": "uint256"
        }
      ],
      "name": "decreaseAllowance",
      "outputs": [
        {
          "internalType": "bool",
          "name": "",
          "type": "bool"
        }
      ],
      "stateMutability": "nonpayable",
      "type": "function"
    },
    {
      "inputs": [],
      "name": "deposit",
      "outputs": [],
      "stateMutability": "payable",
      "type": "function"
    },
    {
      "inputs": [
        {
          "internalType": "address",
          "name": "user",
          "type": "address"
        }
      ],
      "name": "getEthBalance",
      "outputs": [
        {
          "internalType": "uint256",
          "name": "",
          "type": "uint256"
        }
      ],
      "stateMutability": "view",
      "type": "function"
    },
    {
      "inputs": [],
      "name": "getEthPrice",
      "outputs": [
        {
          "internalType": "uint256",
          "name": "",
          "type": "uint256"
        }
      ],
      "stateMutability": "view",
      "type": "function"
    },
    {
      "inputs": [
        {
          "internalType": "address",
          "name": "user",
          "type": "address"
        }
      ],
      "name": "getNusdBalance",
      "outputs": [
        {
          "internalType": "uint256",
          "name": "",
          "type": "uint256"
        }
      ],
      "stateMutability": "view",
      "type": "function"
    },
    {
      "inputs": [
        {
          "internalType": "address",
          "name": "spender",
          "type": "address"
        },
        {
          "internalType": "uint256",
          "name": "addedValue",
          "type": "uint256"
        }
      ],
      "name": "increaseAllowance",
      "outputs": [
        {
          "internalType": "bool",
          "name": "",
          "type": "bool"
        }
      ],
      "stateMutability": "nonpayable",
      "type": "function"
    },
    {
      "inputs": [],
      "name": "name",
      "outputs": [
        {
          "internalType": "string",
          "name": "",
          "type": "string"
        }
      ],
      "stateMutability": "view",
      "type": "function"
    },
    {
      "inputs": [
        {
          "internalType": "uint256",
          "name": "nusdAmount",
          "type": "uint256"
        }
      ],
      "name": "redeem",
      "outputs": [],
      "stateMutability": "nonpayable",
      "type": "function"
    },
    {
      "inputs": [],
      "name": "symbol",
      "outputs": [
        {
          "internalType": "string",
          "name": "",
          "type": "string"
        }
      ],
      "stateMutability": "view",
      "type": "function"
    },
    {
      "inputs": [],
      "name": "totalSupply",
      "outputs": [
        {
          "internalType": "uint256",
          "name": "",
          "type": "uint256"
        }
      ],
      "stateMutability": "view",
      "type": "function"
    },
    {
      "inputs": [
        {
          "internalType": "address",
          "name": "to",
          "type": "address"
        },
        {
          "internalType": "uint256",
          "name": "amount",
          "type": "uint256"
        }
      ],
      "name": "transfer",
      "outputs": [
        {
          "internalType": "bool",
          "name": "",
          "type": "bool"
        }
      ],
      "stateMutability": "nonpayable",
      "type": "function"
    },
    {
      "inputs": [
        {
          "internalType": "address",
          "name": "from",
          "type": "address"
        },
        {
          "internalType": "address",
          "name": "to",
          "type": "address"
        },
        {
          "internalType": "uint256",
          "name": "amount",
          "type": "uint256"
        }
      ],
      "name": "transferFrom",
      "outputs": [
        {
          "internalType": "bool",
          "name": "",
          "type": "bool"
        }
      ],
      "stateMutability": "nonpayable",
      "type": "function"
    }
  ],
  "bytecode": "0x60a06040523480156200001157600080fd5b506040516200268138038062002681833981810160405281019062000037919062000176565b6040518060400160405280600481526020017f6e555344000000000000000000000000000000000000000000000000000000008152506040518060400160405280600481526020017f6e5553440000000000000000000000000000000000000000000000000000000081525060016000819055508160049081620000bc919062000422565b508060059081620000ce919062000422565b5050508073ffffffffffffffffffffffffffffffffffffffff1660808173ffffffffffffffffffffffffffffffffffffffff16815250505062000509565b600080fd5b600073ffffffffffffffffffffffffffffffffffffffff82169050919050565b60006200013e8262000111565b9050919050565b620001508162000131565b81146200015c57600080fd5b50565b600081519050620001708162000145565b92915050565b6000602082840312156200018f576200018e6200010c565b5b60006200019f848285016200015f565b91505092915050565b600081519050919050565b7f4e487b7100000000000000000000000000000000000000000000000000000000600052604160045260246000fd5b7f4e487b7100000000000000000000000000000000000000000000000000000000600052602260045260246000fd5b600060028204905060018216806200022a57607f821691505b60208210810362000240576200023f620001e2565b5b50919050565b60008190508160005260206000209050919050565b60006020601f8301049050919050565b600082821b905092915050565b600060088302620002aa7fffffffffffffffffffffffffffffffffffffffffffffffffffffffffffffffff826200026b565b620002b686836200026b565b95508019841693508086168417925050509392505050565b6000819050919050565b6000819050919050565b600062000303620002fd620002f784620002ce565b620002d8565b620002ce565b9050919050565b6000819050919050565b6200031f83620002e2565b620003376200032e826200030a565b84845462000278565b825550505050565b600090565b6200034e6200033f565b6200035b81848462000314565b505050565b5b8181101562000383576200037760008262000344565b60018101905062000361565b5050565b601f821115620003d2576200039c8162000246565b620003a7846200025b565b81016020851015620003b7578190505b620003cf620003c6856200025b565b83018262000360565b50505b505050565b600082821c905092915050565b6000620003f760001984600802620003d7565b1980831691505092915050565b6000620004128383620003e4565b9150826002028217905092915050565b6200042d82620001a8565b67ffffffffffffffff811115620004495762000448620001b3565b5b62000455825462000211565b6200046282828562000387565b600060209050601f8311600181146200049a576000841562000485578287015190505b62000491858262000404565b86555062000501565b601f198416620004aa8662000246565b60005b82811015620004d457848901518255600182019150602085019450602081019050620004ad565b86831015620004f45784890151620004f0601f891682620003e4565b8355505b6001600288020188555050505b505050505050565b60805161215c6200052560003960006105a3015261215c6000f3fe6080604052600436106100f35760003560e01c806370a082311161008a578063cc76743111610059578063cc7674311461037a578063d0e30db0146103b7578063db006a75146103c1578063dd62ed3e146103ea576100f3565b806370a082311461029857806395d89b41146102d5578063a457c2d714610300578063a9059cbb1461033d576100f3565b8063313ce567116100c6578063313ce567146101c857806339509351146101f35780634d2301cc1461023057806367c9b0171461026d576100f3565b806306fdde03146100f8578063095ea7b31461012357806318160ddd1461016057806323b872dd1461018b575b600080fd5b34801561010457600080fd5b5061010d610427565b60405161011a9190611625565b60405180910390f35b34801561012f57600080fd5b5061014a600480360381019061014591906116e0565b6104b9565b604051610157919061173b565b60405180910390f35b34801561016c57600080fd5b506101756104dc565b6040516101829190611765565b60405180910390f35b34801561019757600080fd5b506101b260048036038101906101ad9190611780565b6104e6565b6040516101bf919061173b565b60405180910390f35b3480156101d457600080fd5b506101dd610515565b6040516101ea91906117ef565b60405180910390f35b3480156101ff57600080fd5b5061021a600480360381019061021591906116e0565b61051e565b604051610227919061173b565b60405180910390f35b34801561023c57600080fd5b506102576004803603810190610252919061180a565b610555565b6040516102649190611765565b60405180910390f35b34801561027957600080fd5b5061028261059e565b60405161028f9190611765565b60405180910390f35b3480156102a457600080fd5b506102bf60048036038101906102ba919061180a565b61067c565b6040516102cc9190611765565b60405180910390f35b3480156102e157600080fd5b506102ea6106c5565b6040516102f79190611625565b60405180910390f35b34801561030c57600080fd5b50610327600480360381019061032291906116e0565b610757565b604051610334919061173b565b60405180910390f35b34801561034957600080fd5b50610364600480360381019061035f91906116e0565b6107ce565b604051610371919061173b565b60405180910390f35b34801561038657600080fd5b506103a1600480360381019061039c919061180a565b6107f1565b6040516103ae9190611765565b60405180910390f35b6103bf61083a565b005b3480156103cd57600080fd5b506103e860048036038101906103e39190611837565b6109c9565b005b3480156103f657600080fd5b50610411600480360381019061040c9190611864565b610c83565b60405161041e9190611765565b60405180910390f35b606060048054610436906118d3565b80601f0160208091040260200160405190810160405280929190818152602001828054610462906118d3565b80156104af5780601f10610484576101008083540402835291602001916104af565b820191906000526020600020905b81548152906001019060200180831161049257829003601f168201915b5050505050905090565b6000806104c4610d0a565b90506104d1818585610d12565b600191505092915050565b6000600354905090565b6000806104f1610d0a565b90506104fe858285610edb565b610509858585610f67565b60019150509392505050565b60006012905090565b600080610529610d0a565b905061054a81858561053b8589610c83565b6105459190611933565b610d12565b600191505092915050565b6000600660008373ffffffffffffffffffffffffffffffffffffffff1673ffffffffffffffffffffffffffffffffffffffff168152602001908152602001600020549050919050565b6000807f000000000000000000000000000000000000000000000000000000000000000073ffffffffffffffffffffffffffffffffffffffff1663ab757d616040518163ffffffff1660e01b8152600401602060405180830381865afa15801561060c573d6000803e3d6000fd5b505050506040513d601f19601f82011682018060405250810190610630919061199d565b905060008113610675576040517f08c379a000000000000000000000000000000000000000000000000000000000815260040161066c90611a16565b60405180910390fd5b8091505090565b6000600160008373ffffffffffffffffffffffffffffffffffffffff1673ffffffffffffffffffffffffffffffffffffffff168152602001908152602001600020549050919050565b6060600580546106d4906118d3565b80601f0160208091040260200160405190810160405280929190818152602001828054610700906118d3565b801561074d5780601f106107225761010080835404028352916020019161074d565b820191906000526020600020905b81548152906001019060200180831161073057829003601f168201915b5050505050905090565b600080610762610d0a565b905060006107708286610c83565b9050838110156107b5576040517f08c379a00000000000000000000000000000000000000000000000000000000081526004016107ac90611aa8565b60405180910390fd5b6107c28286868403610d12565b60019250505092915050565b6000806107d9610d0a565b90506107e6818585610f67565b600191505092915050565b6000600760008373ffffffffffffffffffffffffffffffffffffffff1673ffffffffffffffffffffffffffffffffffffffff168152602001908152602001600020549050919050565b60003411610874576040517fc065426400000000000000000000000000000000000000000000000000000000815260040160405180910390fd5b600061087e61059e565b905060006108af670de0b6b3a76400006108a134856111e090919063ffffffff16565b6111f690919063ffffffff16565b905060006108c76002836111f690919063ffffffff16565b905034600660003373ffffffffffffffffffffffffffffffffffffffff1673ffffffffffffffffffffffffffffffffffffffff16815260200190815260200160002060008282546109189190611933565b9250508190555080600760003373ffffffffffffffffffffffffffffffffffffffff1673ffffffffffffffffffffffffffffffffffffffff168152602001908152602001600020600082825461096e9190611933565b9250508190555061097f338261120c565b80343373ffffffffffffffffffffffffffffffffffffffff167f90890809c654f11d6e72a28fa60149770a0d11ec6c92319d6ceb2bb0a4ea1a1560405160405180910390a4505050565b6109d1611363565b60008111610a0b576040517fc065426400000000000000000000000000000000000000000000000000000000815260040160405180910390fd5b600281610a189190611ac8565b600760003373ffffffffffffffffffffffffffffffffffffffff1673ffffffffffffffffffffffffffffffffffffffff168152602001908152602001600020541015610a90576040517f3be2d82800000000000000000000000000000000000000000000000000000000815260040160405180910390fd5b6000670de0b6b3a764000090506000610acb610aaa61059e565b610abd85856111e090919063ffffffff16565b6111f690919063ffffffff16565b905082600760003373ffffffffffffffffffffffffffffffffffffffff1673ffffffffffffffffffffffffffffffffffffffff1681526020019081526020016000206000828254610b1c9190611b0a565b92505081905550610b2d33846113b2565b80600660003373ffffffffffffffffffffffffffffffffffffffff1673ffffffffffffffffffffffffffffffffffffffff1681526020019081526020016000206000828254610b7c9190611b0a565b9250508190555060003373ffffffffffffffffffffffffffffffffffffffff1682604051610ba990611b6f565b60006040518083038185875af1925050503d8060008114610be6576040519150601f19603f3d011682016040523d82523d6000602084013e610beb565b606091505b5050905080610c26576040517f60b3c9aa00000000000000000000000000000000000000000000000000000000815260040160405180910390fd5b813373ffffffffffffffffffffffffffffffffffffffff167fe5b754fb1abb7f01b499791d0b820ae3b6af3424ac1c59768edb53f4ec31a92986604051610c6d9190611765565b60405180910390a3505050610c80611581565b50565b6000600260008473ffffffffffffffffffffffffffffffffffffffff1673ffffffffffffffffffffffffffffffffffffffff16815260200190815260200160002060008373ffffffffffffffffffffffffffffffffffffffff1673ffffffffffffffffffffffffffffffffffffffff16815260200190815260200160002054905092915050565b600033905090565b600073ffffffffffffffffffffffffffffffffffffffff168373ffffffffffffffffffffffffffffffffffffffff1603610d81576040517f08c379a0000000000000000000000000000000000000000000000000000000008152600401610d7890611bf6565b60405180910390fd5b600073ffffffffffffffffffffffffffffffffffffffff168273ffffffffffffffffffffffffffffffffffffffff1603610df0576040517f08c379a0000000000000000000000000000000000000000000000000000000008152600401610de790611c88565b60405180910390fd5b80600260008573ffffffffffffffffffffffffffffffffffffffff1673ffffffffffffffffffffffffffffffffffffffff16815260200190815260200160002060008473ffffffffffffffffffffffffffffffffffffffff1673ffffffffffffffffffffffffffffffffffffffff168152602001908152602001600020819055508173ffffffffffffffffffffffffffffffffffffffff168373ffffffffffffffffffffffffffffffffffffffff167f8c5be1e5ebec7d5bd14f71427d1e84f3dd0314c0f7b2291e5b200ac8c7c3b92583604051610ece9190611765565b60405180910390a3505050565b6000610ee78484610c83565b90507fffffffffffffffffffffffffffffffffffffffffffffffffffffffffffffffff8114610f615781811015610f53576040517f08c379a0000000000000000000000000000000000000000000000000000000008152600401610f4a90611cf4565b60405180910390fd5b610f608484848403610d12565b5b50505050565b600073ffffffffffffffffffffffffffffffffffffffff168373ffffffffffffffffffffffffffffffffffffffff1603610fd6576040517f08c379a0000000000000000000000000000000000000000000000000000000008152600401610fcd90611d86565b60405180910390fd5b600073ffffffffffffffffffffffffffffffffffffffff168273ffffffffffffffffffffffffffffffffffffffff1603611045576040517f08c379a000000000000000000000000000000000000000000000000000000000815260040161103c90611e18565b60405180910390fd5b61105083838361158b565b6000600160008573ffffffffffffffffffffffffffffffffffffffff1673ffffffffffffffffffffffffffffffffffffffff168152602001908152602001600020549050818110156110d7576040517f08c379a00000000000000000000000000000000000000000000000000000000081526004016110ce90611eaa565b60405180910390fd5b818103600160008673ffffffffffffffffffffffffffffffffffffffff1673ffffffffffffffffffffffffffffffffffffffff1681526020019081526020016000208190555081600160008573ffffffffffffffffffffffffffffffffffffffff1673ffffffffffffffffffffffffffffffffffffffff168152602001908152602001600020600082825401925050819055508273ffffffffffffffffffffffffffffffffffffffff168473ffffffffffffffffffffffffffffffffffffffff167fddf252ad1be2c89b69c2b068fc378daa952ba7f163c4a11628f55a4df523b3ef846040516111c79190611765565b60405180910390a36111da848484611590565b50505050565b600081836111ee9190611ac8565b905092915050565b600081836112049190611ef9565b905092915050565b600073ffffffffffffffffffffffffffffffffffffffff168273ffffffffffffffffffffffffffffffffffffffff160361127b576040517f08c379a000000000000000000000000000000000000000000000000000000000815260040161127290611f76565b60405180910390fd5b6112876000838361158b565b80600360008282546112999190611933565b9250508190555080600160008473ffffffffffffffffffffffffffffffffffffffff1673ffffffffffffffffffffffffffffffffffffffff168152602001908152602001600020600082825401925050819055508173ffffffffffffffffffffffffffffffffffffffff16600073ffffffffffffffffffffffffffffffffffffffff167fddf252ad1be2c89b69c2b068fc378daa952ba7f163c4a11628f55a4df523b3ef8360405161134b9190611765565b60405180910390a361135f60008383611590565b5050565b6002600054036113a8576040517f08c379a000000000000000000000000000000000000000000000000000000000815260040161139f90611fe2565b60405180910390fd5b6002600081905550565b600073ffffffffffffffffffffffffffffffffffffffff168273ffffffffffffffffffffffffffffffffffffffff1603611421576040517f08c379a000000000000000000000000000000000000000000000000000000000815260040161141890612074565b60405180910390fd5b61142d8260008361158b565b6000600160008473ffffffffffffffffffffffffffffffffffffffff1673ffffffffffffffffffffffffffffffffffffffff168152602001908152602001600020549050818110156114b4576040517f08c379a00000000000000000000000000000000000000000000000000000000081526004016114ab90612106565b60405180910390fd5b818103600160008573ffffffffffffffffffffffffffffffffffffffff1673ffffffffffffffffffffffffffffffffffffffff1681526020019081526020016000208190555081600360008282540392505081905550600073ffffffffffffffffffffffffffffffffffffffff168373ffffffffffffffffffffffffffffffffffffffff167fddf252ad1be2c89b69c2b068fc378daa952ba7f163c4a11628f55a4df523b3ef846040516115689190611765565b60405180910390a361157c83600084611590565b505050565b6001600081905550565b505050565b505050565b600081519050919050565b600082825260208201905092915050565b60005b838110156115cf5780820151818401526020810190506115b4565b60008484015250505050565b6000601f19601f8301169050919050565b60006115f782611595565b61160181856115a0565b93506116118185602086016115b1565b61161a816115db565b840191505092915050565b6000602082019050818103600083015261163f81846115ec565b905092915050565b600080fd5b600073ffffffffffffffffffffffffffffffffffffffff82169050919050565b60006116778261164c565b9050919050565b6116878161166c565b811461169257600080fd5b50565b6000813590506116a48161167e565b92915050565b6000819050919050565b6116bd816116aa565b81146116c857600080fd5b50565b6000813590506116da816116b4565b92915050565b600080604083850312156116f7576116f6611647565b5b600061170585828601611695565b9250506020611716858286016116cb565b9150509250929050565b60008115159050919050565b61173581611720565b82525050565b6000602082019050611750600083018461172c565b92915050565b61175f816116aa565b82525050565b600060208201905061177a6000830184611756565b92915050565b60008060006060848603121561179957611798611647565b5b60006117a786828701611695565b93505060206117b886828701611695565b92505060406117c9868287016116cb565b9150509250925092565b600060ff82169050919050565b6117e9816117d3565b82525050565b600060208201905061180460008301846117e0565b92915050565b6000602082840312156118205761181f611647565b5b600061182e84828501611695565b91505092915050565b60006020828403121561184d5761184c611647565b5b600061185b848285016116cb565b91505092915050565b6000806040838503121561187b5761187a611647565b5b600061188985828601611695565b925050602061189a85828601611695565b9150509250929050565b7f4e487b7100000000000000000000000000000000000000000000000000000000600052602260045260246000fd5b600060028204905060018216806118eb57607f821691505b6020821081036118fe576118fd6118a4565b5b50919050565b7f4e487b7100000000000000000000000000000000000000000000000000000000600052601160045260246000fd5b600061193e826116aa565b9150611949836116aa565b925082820190508082111561196157611960611904565b5b92915050565b6000819050919050565b61197a81611967565b811461198557600080fd5b50565b60008151905061199781611971565b92915050565b6000602082840312156119b3576119b2611647565b5b60006119c184828501611988565b91505092915050565b7f496e76616c696420455448207072696365000000000000000000000000000000600082015250565b6000611a006011836115a0565b9150611a0b826119ca565b602082019050919050565b60006020820190508181036000830152611a2f816119f3565b9050919050565b7f45524332303a2064656372656173656420616c6c6f77616e63652062656c6f7760008201527f207a65726f000000000000000000000000000000000000000000000000000000602082015250565b6000611a926025836115a0565b9150611a9d82611a36565b604082019050919050565b60006020820190508181036000830152611ac181611a85565b9050919050565b6000611ad3826116aa565b9150611ade836116aa565b9250828202611aec816116aa565b91508282048414831517611b0357611b02611904565b5b5092915050565b6000611b15826116aa565b9150611b20836116aa565b9250828203905081811115611b3857611b37611904565b5b92915050565b600081905092915050565b50565b6000611b59600083611b3e565b9150611b6482611b49565b600082019050919050565b6000611b7a82611b4c565b9150819050919050565b7f45524332303a20617070726f76652066726f6d20746865207a65726f2061646460008201527f7265737300000000000000000000000000000000000000000000000000000000602082015250565b6000611be06024836115a0565b9150611beb82611b84565b604082019050919050565b60006020820190508181036000830152611c0f81611bd3565b9050919050565b7f45524332303a20617070726f766520746f20746865207a65726f20616464726560008201527f7373000000000000000000000000000000000000000000000000000000000000602082015250565b6000611c726022836115a0565b9150611c7d82611c16565b604082019050919050565b60006020820190508181036000830152611ca181611c65565b9050919050565b7f45524332303a20696e73756666696369656e7420616c6c6f77616e6365000000600082015250565b6000611cde601d836115a0565b9150611ce982611ca8565b602082019050919050565b60006020820190508181036000830152611d0d81611cd1565b9050919050565b7f45524332303a207472616e736665722066726f6d20746865207a65726f20616460008201527f6472657373000000000000000000000000000000000000000000000000000000602082015250565b6000611d706025836115a0565b9150611d7b82611d14565b604082019050919050565b60006020820190508181036000830152611d9f81611d63565b9050919050565b7f45524332303a207472616e7366657220746f20746865207a65726f206164647260008201527f6573730000000000000000000000000000000000000000000000000000000000602082015250565b6000611e026023836115a0565b9150611e0d82611da6565b604082019050919050565b60006020820190508181036000830152611e3181611df5565b9050919050565b7f45524332303a207472616e7366657220616d6f756e742065786365656473206260008201527f616c616e63650000000000000000000000000000000000000000000000000000602082015250565b6000611e946026836115a0565b9150611e9f82611e38565b604082019050919050565b60006020820190508181036000830152611ec381611e87565b9050919050565b7f4e487b7100000000000000000000000000000000000000000000000000000000600052601260045260246000fd5b6000611f04826116aa565b9150611f0f836116aa565b925082611f1f57611f1e611eca565b5b828204905092915050565b7f45524332303a206d696e7420746f20746865207a65726f206164647265737300600082015250565b6000611f60601f836115a0565b9150611f6b82611f2a565b602082019050919050565b60006020820190508181036000830152611f8f81611f53565b9050919050565b7f5265656e7472616e637947756172643a207265656e7472616e742063616c6c00600082015250565b6000611fcc601f836115a0565b9150611fd782611f96565b602082019050919050565b60006020820190508181036000830152611ffb81611fbf565b9050919050565b7f45524332303a206275726e2066726f6d20746865207a65726f2061646472657360008201527f7300000000000000000000000000000000000000000000000000000000000000602082015250565b600061205e6021836115a0565b915061206982612002565b604082019050919050565b6000602082019050818103600083015261208d81612051565b9050919050565b7f45524332303a206275726e20616d6f756e7420657863656564732062616c616e60008201527f6365000000000000000000000000000000000000000000000000000000000000602082015250565b60006120f06022836115a0565b91506120fb82612094565b604082019050919050565b6000602082019050818103600083015261211f816120e3565b905091905056fea2646970667358221220be380d98be13258f54851762d5d04455d8c996c34c19c995b6ad0ada30ccbdbf64736f6c63430008120033",
  "linkReferences": {},
  "deployedLinkReferences": {}
}