{
  "_format": "hh-sol-artifact-1",
  "contractName": "Stablecoin",
  "sourceName": "contracts/Stable_coin.sol",
  "abi": [
    {
      "inputs": [
        {
          "internalType": "address",
          "name": "_oracleDataFeedAddress",
          "type": "address"
        },
        {
          "internalType": "uint8",
          "name": "_depositFeePercentage",
          "type": "uint8"
        }
      ],
      "stateMutability": "nonpayable",
      "type": "constructor"
    },
    {
      "inputs": [],
      "name": "MustBeGreaterThanZero",
      "type": "error"
    },
    {
      "inputs": [],
      "name": "TokenBalanceShouldBeDouble",
      "type": "error"
    },
    {
      "inputs": [],
      "name": "TrasanctionFailed",
      "type": "error"
    },
    {
      "anonymous": false,
      "inputs": [
        {
          "indexed": true,
          "internalType": "address",
          "name": "owner",
          "type": "address"
        },
        {
          "indexed": true,
          "internalType": "address",
          "name": "spender",
          "type": "address"
        },
        {
          "indexed": false,
          "internalType": "uint256",
          "name": "value",
          "type": "uint256"
        }
      ],
      "name": "Approval",
      "type": "event"
    },
    {
      "anonymous": false,
      "inputs": [
        {
          "indexed": true,
          "internalType": "address",
          "name": "from",
          "type": "address"
        },
        {
          "indexed": true,
          "internalType": "uint256",
          "name": "Colletal",
          "type": "uint256"
        },
        {
          "indexed": true,
          "internalType": "uint256",
          "name": "token",
          "type": "uint256"
        }
      ],
      "name": "Deposit",
      "type": "event"
    },
    {
      "anonymous": false,
      "inputs": [
        {
          "indexed": true,
          "internalType": "address",
          "name": "to",
          "type": "address"
        },
        {
          "indexed": true,
          "internalType": "uint256",
          "name": "ethamount",
          "type": "uint256"
        },
        {
          "indexed": false,
          "internalType": "uint256",
          "name": "nusdAmount",
          "type": "uint256"
        }
      ],
      "name": "Redeem",
      "type": "event"
    },
    {
      "anonymous": false,
      "inputs": [
        {
          "indexed": true,
          "internalType": "address",
          "name": "from",
          "type": "address"
        },
        {
          "indexed": true,
          "internalType": "address",
          "name": "to",
          "type": "address"
        },
        {
          "indexed": false,
          "internalType": "uint256",
          "name": "value",
          "type": "uint256"
        }
      ],
      "name": "Transfer",
      "type": "event"
    },
    {
      "inputs": [
        {
          "internalType": "address",
          "name": "owner",
          "type": "address"
        },
        {
          "internalType": "address",
          "name": "spender",
          "type": "address"
        }
      ],
      "name": "allowance",
      "outputs": [
        {
          "internalType": "uint256",
          "name": "",
          "type": "uint256"
        }
      ],
      "stateMutability": "view",
      "type": "function"
    },
    {
      "inputs": [
        {
          "internalType": "address",
          "name": "spender",
          "type": "address"
        },
        {
          "internalType": "uint256",
          "name": "amount",
          "type": "uint256"
        }
      ],
      "name": "approve",
      "outputs": [
        {
          "internalType": "bool",
          "name": "",
          "type": "bool"
        }
      ],
      "stateMutability": "nonpayable",
      "type": "function"
    },
    {
      "inputs": [
        {
          "internalType": "address",
          "name": "account",
          "type": "address"
        }
      ],
      "name": "balanceOf",
      "outputs": [
        {
          "internalType": "uint256",
          "name": "",
          "type": "uint256"
        }
      ],
      "stateMutability": "view",
      "type": "function"
    },
    {
      "inputs": [],
      "name": "decimals",
      "outputs": [
        {
          "internalType": "uint8",
          "name": "",
          "type": "uint8"
        }
      ],
      "stateMutability": "view",
      "type": "function"
    },
    {
      "inputs": [
        {
          "internalType": "address",
          "name": "spender",
          "type": "address"
        },
        {
          "internalType": "uint256",
          "name": "subtractedValue",
          "type": "uint256"
        }
      ],
      "name": "decreaseAllowance",
      "outputs": [
        {
          "internalType": "bool",
          "name": "",
          "type": "bool"
        }
      ],
      "stateMutability": "nonpayable",
      "type": "function"
    },
    {
      "inputs": [],
      "name": "deposit",
      "outputs": [],
      "stateMutability": "payable",
      "type": "function"
    },
    {
      "inputs": [],
      "name": "depositFeePercentage",
      "outputs": [
        {
          "internalType": "uint8",
          "name": "",
          "type": "uint8"
        }
      ],
      "stateMutability": "view",
      "type": "function"
    },
    {
      "inputs": [
        {
          "internalType": "address",
          "name": "user",
          "type": "address"
        }
      ],
      "name": "getEthBalance",
      "outputs": [
        {
          "internalType": "uint256",
          "name": "",
          "type": "uint256"
        }
      ],
      "stateMutability": "view",
      "type": "function"
    },
    {
      "inputs": [],
      "name": "getEthPrice",
      "outputs": [
        {
          "internalType": "uint256",
          "name": "",
          "type": "uint256"
        }
      ],
      "stateMutability": "view",
      "type": "function"
    },
    {
      "inputs": [
        {
          "internalType": "address",
          "name": "user",
          "type": "address"
        }
      ],
      "name": "getNusdBalance",
      "outputs": [
        {
          "internalType": "uint256",
          "name": "",
          "type": "uint256"
        }
      ],
      "stateMutability": "view",
      "type": "function"
    },
    {
      "inputs": [
        {
          "internalType": "address",
          "name": "spender",
          "type": "address"
        },
        {
          "internalType": "uint256",
          "name": "addedValue",
          "type": "uint256"
        }
      ],
      "name": "increaseAllowance",
      "outputs": [
        {
          "internalType": "bool",
          "name": "",
          "type": "bool"
        }
      ],
      "stateMutability": "nonpayable",
      "type": "function"
    },
    {
      "inputs": [],
      "name": "name",
      "outputs": [
        {
          "internalType": "string",
          "name": "",
          "type": "string"
        }
      ],
      "stateMutability": "view",
      "type": "function"
    },
    {
      "inputs": [
        {
          "internalType": "uint256",
          "name": "nusdAmount",
          "type": "uint256"
        }
      ],
      "name": "redeem",
      "outputs": [],
      "stateMutability": "nonpayable",
      "type": "function"
    },
    {
      "inputs": [],
      "name": "symbol",
      "outputs": [
        {
          "internalType": "string",
          "name": "",
          "type": "string"
        }
      ],
      "stateMutability": "view",
      "type": "function"
    },
    {
      "inputs": [],
      "name": "totalSupply",
      "outputs": [
        {
          "internalType": "uint256",
          "name": "",
          "type": "uint256"
        }
      ],
      "stateMutability": "view",
      "type": "function"
    },
    {
      "inputs": [
        {
          "internalType": "address",
          "name": "to",
          "type": "address"
        },
        {
          "internalType": "uint256",
          "name": "amount",
          "type": "uint256"
        }
      ],
      "name": "transfer",
      "outputs": [
        {
          "internalType": "bool",
          "name": "",
          "type": "bool"
        }
      ],
      "stateMutability": "nonpayable",
      "type": "function"
    },
    {
      "inputs": [
        {
          "internalType": "address",
          "name": "from",
          "type": "address"
        },
        {
          "internalType": "address",
          "name": "to",
          "type": "address"
        },
        {
          "internalType": "uint256",
          "name": "amount",
          "type": "uint256"
        }
      ],
      "name": "transferFrom",
      "outputs": [
        {
          "internalType": "bool",
          "name": "",
          "type": "bool"
        }
      ],
      "stateMutability": "nonpayable",
      "type": "function"
    }
  ],
  "bytecode": "0x60c06040523480156200001157600080fd5b50604051620026c6380380620026c68339818101604052810190620000379190620001bb565b6040518060400160405280600481526020017f6e555344000000000000000000000000000000000000000000000000000000008152506040518060400160405280600481526020017f6e555344000000000000000000000000000000000000000000000000000000008152508160039081620000b491906200047c565b508060049081620000c691906200047c565b5050508173ffffffffffffffffffffffffffffffffffffffff1660808173ffffffffffffffffffffffffffffffffffffffff16815250508060ff1660a08160ff1681525050505062000563565b600080fd5b600073ffffffffffffffffffffffffffffffffffffffff82169050919050565b6000620001458262000118565b9050919050565b620001578162000138565b81146200016357600080fd5b50565b60008151905062000177816200014c565b92915050565b600060ff82169050919050565b62000195816200017d565b8114620001a157600080fd5b50565b600081519050620001b5816200018a565b92915050565b60008060408385031215620001d557620001d462000113565b5b6000620001e58582860162000166565b9250506020620001f885828601620001a4565b9150509250929050565b600081519050919050565b7f4e487b7100000000000000000000000000000000000000000000000000000000600052604160045260246000fd5b7f4e487b7100000000000000000000000000000000000000000000000000000000600052602260045260246000fd5b600060028204905060018216806200028457607f821691505b6020821081036200029a57620002996200023c565b5b50919050565b60008190508160005260206000209050919050565b60006020601f8301049050919050565b600082821b905092915050565b600060088302620003047fffffffffffffffffffffffffffffffffffffffffffffffffffffffffffffffff82620002c5565b620003108683620002c5565b95508019841693508086168417925050509392505050565b6000819050919050565b6000819050919050565b60006200035d62000357620003518462000328565b62000332565b62000328565b9050919050565b6000819050919050565b62000379836200033c565b62000391620003888262000364565b848454620002d2565b825550505050565b600090565b620003a862000399565b620003b58184846200036e565b505050565b5b81811015620003dd57620003d16000826200039e565b600181019050620003bb565b5050565b601f8211156200042c57620003f681620002a0565b6200040184620002b5565b8101602085101562000411578190505b620004296200042085620002b5565b830182620003ba565b50505b505050565b600082821c905092915050565b6000620004516000198460080262000431565b1980831691505092915050565b60006200046c83836200043e565b9150826002028217905092915050565b620004878262000202565b67ffffffffffffffff811115620004a357620004a26200020d565b5b620004af82546200026b565b620004bc828285620003e1565b600060209050601f831160018114620004f45760008415620004df578287015190505b620004eb85826200045e565b8655506200055b565b601f1984166200050486620002a0565b60005b828110156200052e5784890151825560018201915060208501945060208101905062000507565b868310156200054e57848901516200054a601f8916826200043e565b8355505b6001600288020188555050505b505050505050565b60805160a0516121366200059060003960008181610871015261092e015260006105d901526121366000f3fe6080604052600436106100fe5760003560e01c806370a0823111610095578063cc76743111610064578063cc76743114610385578063cca237b6146103c2578063d0e30db0146103ed578063db006a75146103f7578063dd62ed3e14610420576100fe565b806370a08231146102a357806395d89b41146102e0578063a457c2d71461030b578063a9059cbb14610348576100fe565b8063313ce567116100d1578063313ce567146101d357806339509351146101fe5780634d2301cc1461023b57806367c9b01714610278576100fe565b806306fdde0314610103578063095ea7b31461012e57806318160ddd1461016b57806323b872dd14610196575b600080fd5b34801561010f57600080fd5b5061011861045d565b604051610125919061166b565b60405180910390f35b34801561013a57600080fd5b5061015560048036038101906101509190611726565b6104ef565b6040516101629190611781565b60405180910390f35b34801561017757600080fd5b50610180610512565b60405161018d91906117ab565b60405180910390f35b3480156101a257600080fd5b506101bd60048036038101906101b891906117c6565b61051c565b6040516101ca9190611781565b60405180910390f35b3480156101df57600080fd5b506101e861054b565b6040516101f59190611835565b60405180910390f35b34801561020a57600080fd5b5061022560048036038101906102209190611726565b610554565b6040516102329190611781565b60405180910390f35b34801561024757600080fd5b50610262600480360381019061025d9190611850565b61058b565b60405161026f91906117ab565b60405180910390f35b34801561028457600080fd5b5061028d6105d4565b60405161029a91906117ab565b60405180910390f35b3480156102af57600080fd5b506102ca60048036038101906102c59190611850565b6106b2565b6040516102d791906117ab565b60405180910390f35b3480156102ec57600080fd5b506102f56106fa565b604051610302919061166b565b60405180910390f35b34801561031757600080fd5b50610332600480360381019061032d9190611726565b61078c565b60405161033f9190611781565b60405180910390f35b34801561035457600080fd5b5061036f600480360381019061036a9190611726565b610803565b60405161037c9190611781565b60405180910390f35b34801561039157600080fd5b506103ac60048036038101906103a79190611850565b610826565b6040516103b991906117ab565b60405180910390f35b3480156103ce57600080fd5b506103d761086f565b6040516103e49190611835565b60405180910390f35b6103f5610893565b005b34801561040357600080fd5b5061041e6004803603810190610419919061187d565b610a7e565b005b34801561042c57600080fd5b50610447600480360381019061044291906118aa565b610d28565b60405161045491906117ab565b60405180910390f35b60606003805461046c90611919565b80601f016020809104026020016040519081016040528092919081815260200182805461049890611919565b80156104e55780601f106104ba576101008083540402835291602001916104e5565b820191906000526020600020905b8154815290600101906020018083116104c857829003601f168201915b5050505050905090565b6000806104fa610daf565b9050610507818585610db7565b600191505092915050565b6000600254905090565b600080610527610daf565b9050610534858285610f80565b61053f85858561100c565b60019150509392505050565b60006012905090565b60008061055f610daf565b90506105808185856105718589610d28565b61057b9190611979565b610db7565b600191505092915050565b6000600560008373ffffffffffffffffffffffffffffffffffffffff1673ffffffffffffffffffffffffffffffffffffffff168152602001908152602001600020549050919050565b6000807f000000000000000000000000000000000000000000000000000000000000000073ffffffffffffffffffffffffffffffffffffffff1663ab757d616040518163ffffffff1660e01b8152600401602060405180830381865afa158015610642573d6000803e3d6000fd5b505050506040513d601f19601f8201168201806040525081019061066691906119e3565b9050600081136106ab576040517f08c379a00000000000000000000000000000000000000000000000000000000081526004016106a290611a5c565b60405180910390fd5b8091505090565b60008060008373ffffffffffffffffffffffffffffffffffffffff1673ffffffffffffffffffffffffffffffffffffffff168152602001908152602001600020549050919050565b60606004805461070990611919565b80601f016020809104026020016040519081016040528092919081815260200182805461073590611919565b80156107825780601f1061075757610100808354040283529160200191610782565b820191906000526020600020905b81548152906001019060200180831161076557829003601f168201915b5050505050905090565b600080610797610daf565b905060006107a58286610d28565b9050838110156107ea576040517f08c379a00000000000000000000000000000000000000000000000000000000081526004016107e190611aee565b60405180910390fd5b6107f78286868403610db7565b60019250505092915050565b60008061080e610daf565b905061081b81858561100c565b600191505092915050565b6000600660008373ffffffffffffffffffffffffffffffffffffffff1673ffffffffffffffffffffffffffffffffffffffff168152602001908152602001600020549050919050565b7f000000000000000000000000000000000000000000000000000000000000000081565b600034116108cd576040517fc065426400000000000000000000000000000000000000000000000000000000815260040160405180910390fd5b60006108d76105d4565b90506000610908670de0b6b3a76400006108fa348561128290919063ffffffff16565b61129890919063ffffffff16565b9050600061092060028361129890919063ffffffff16565b9050600061096d606461095f7f000000000000000000000000000000000000000000000000000000000000000060ff168561128290919063ffffffff16565b61129890919063ffffffff16565b9050808261097b9190611b0e565b915034600560003373ffffffffffffffffffffffffffffffffffffffff1673ffffffffffffffffffffffffffffffffffffffff16815260200190815260200160002060008282546109cc9190611979565b9250508190555081600660003373ffffffffffffffffffffffffffffffffffffffff1673ffffffffffffffffffffffffffffffffffffffff1681526020019081526020016000206000828254610a229190611979565b92505081905550610a3333836112ae565b81343373ffffffffffffffffffffffffffffffffffffffff167f90890809c654f11d6e72a28fa60149770a0d11ec6c92319d6ceb2bb0a4ea1a1560405160405180910390a450505050565b60008111610ab8576040517fc065426400000000000000000000000000000000000000000000000000000000815260040160405180910390fd5b600281610ac59190611b42565b600660003373ffffffffffffffffffffffffffffffffffffffff1673ffffffffffffffffffffffffffffffffffffffff168152602001908152602001600020541015610b3d576040517f3be2d82800000000000000000000000000000000000000000000000000000000815260040160405180910390fd5b6000670de0b6b3a764000090506000610b78610b576105d4565b610b6a858561128290919063ffffffff16565b61129890919063ffffffff16565b905082600660003373ffffffffffffffffffffffffffffffffffffffff1673ffffffffffffffffffffffffffffffffffffffff1681526020019081526020016000206000828254610bc99190611b0e565b92505081905550610bda3384611404565b80600560003373ffffffffffffffffffffffffffffffffffffffff1673ffffffffffffffffffffffffffffffffffffffff1681526020019081526020016000206000828254610c299190611b0e565b9250508190555060003373ffffffffffffffffffffffffffffffffffffffff1682604051610c5690611bb5565b60006040518083038185875af1925050503d8060008114610c93576040519150601f19603f3d011682016040523d82523d6000602084013e610c98565b606091505b5050905080610cd3576040517f60b3c9aa00000000000000000000000000000000000000000000000000000000815260040160405180910390fd5b813373ffffffffffffffffffffffffffffffffffffffff167fe5b754fb1abb7f01b499791d0b820ae3b6af3424ac1c59768edb53f4ec31a92986604051610d1a91906117ab565b60405180910390a350505050565b6000600160008473ffffffffffffffffffffffffffffffffffffffff1673ffffffffffffffffffffffffffffffffffffffff16815260200190815260200160002060008373ffffffffffffffffffffffffffffffffffffffff1673ffffffffffffffffffffffffffffffffffffffff16815260200190815260200160002054905092915050565b600033905090565b600073ffffffffffffffffffffffffffffffffffffffff168373ffffffffffffffffffffffffffffffffffffffff1603610e26576040517f08c379a0000000000000000000000000000000000000000000000000000000008152600401610e1d90611c3c565b60405180910390fd5b600073ffffffffffffffffffffffffffffffffffffffff168273ffffffffffffffffffffffffffffffffffffffff1603610e95576040517f08c379a0000000000000000000000000000000000000000000000000000000008152600401610e8c90611cce565b60405180910390fd5b80600160008573ffffffffffffffffffffffffffffffffffffffff1673ffffffffffffffffffffffffffffffffffffffff16815260200190815260200160002060008473ffffffffffffffffffffffffffffffffffffffff1673ffffffffffffffffffffffffffffffffffffffff168152602001908152602001600020819055508173ffffffffffffffffffffffffffffffffffffffff168373ffffffffffffffffffffffffffffffffffffffff167f8c5be1e5ebec7d5bd14f71427d1e84f3dd0314c0f7b2291e5b200ac8c7c3b92583604051610f7391906117ab565b60405180910390a3505050565b6000610f8c8484610d28565b90507fffffffffffffffffffffffffffffffffffffffffffffffffffffffffffffffff81146110065781811015610ff8576040517f08c379a0000000000000000000000000000000000000000000000000000000008152600401610fef90611d3a565b60405180910390fd5b6110058484848403610db7565b5b50505050565b600073ffffffffffffffffffffffffffffffffffffffff168373ffffffffffffffffffffffffffffffffffffffff160361107b576040517f08c379a000000000000000000000000000000000000000000000000000000000815260040161107290611dcc565b60405180910390fd5b600073ffffffffffffffffffffffffffffffffffffffff168273ffffffffffffffffffffffffffffffffffffffff16036110ea576040517f08c379a00000000000000000000000000000000000000000000000000000000081526004016110e190611e5e565b60405180910390fd5b6110f58383836115d1565b60008060008573ffffffffffffffffffffffffffffffffffffffff1673ffffffffffffffffffffffffffffffffffffffff1681526020019081526020016000205490508181101561117b576040517f08c379a000000000000000000000000000000000000000000000000000000000815260040161117290611ef0565b60405180910390fd5b8181036000808673ffffffffffffffffffffffffffffffffffffffff1673ffffffffffffffffffffffffffffffffffffffff16815260200190815260200160002081905550816000808573ffffffffffffffffffffffffffffffffffffffff1673ffffffffffffffffffffffffffffffffffffffff168152602001908152602001600020600082825401925050819055508273ffffffffffffffffffffffffffffffffffffffff168473ffffffffffffffffffffffffffffffffffffffff167fddf252ad1be2c89b69c2b068fc378daa952ba7f163c4a11628f55a4df523b3ef8460405161126991906117ab565b60405180910390a361127c8484846115d6565b50505050565b600081836112909190611b42565b905092915050565b600081836112a69190611f3f565b905092915050565b600073ffffffffffffffffffffffffffffffffffffffff168273ffffffffffffffffffffffffffffffffffffffff160361131d576040517f08c379a000000000000000000000000000000000000000000000000000000000815260040161131490611fbc565b60405180910390fd5b611329600083836115d1565b806002600082825461133b9190611979565b92505081905550806000808473ffffffffffffffffffffffffffffffffffffffff1673ffffffffffffffffffffffffffffffffffffffff168152602001908152602001600020600082825401925050819055508173ffffffffffffffffffffffffffffffffffffffff16600073ffffffffffffffffffffffffffffffffffffffff167fddf252ad1be2c89b69c2b068fc378daa952ba7f163c4a11628f55a4df523b3ef836040516113ec91906117ab565b60405180910390a3611400600083836115d6565b5050565b600073ffffffffffffffffffffffffffffffffffffffff168273ffffffffffffffffffffffffffffffffffffffff1603611473576040517f08c379a000000000000000000000000000000000000000000000000000000000815260040161146a9061204e565b60405180910390fd5b61147f826000836115d1565b60008060008473ffffffffffffffffffffffffffffffffffffffff1673ffffffffffffffffffffffffffffffffffffffff16815260200190815260200160002054905081811015611505576040517f08c379a00000000000000000000000000000000000000000000000000000000081526004016114fc906120e0565b60405180910390fd5b8181036000808573ffffffffffffffffffffffffffffffffffffffff1673ffffffffffffffffffffffffffffffffffffffff1681526020019081526020016000208190555081600260008282540392505081905550600073ffffffffffffffffffffffffffffffffffffffff168373ffffffffffffffffffffffffffffffffffffffff167fddf252ad1be2c89b69c2b068fc378daa952ba7f163c4a11628f55a4df523b3ef846040516115b891906117ab565b60405180910390a36115cc836000846115d6565b505050565b505050565b505050565b600081519050919050565b600082825260208201905092915050565b60005b838110156116155780820151818401526020810190506115fa565b60008484015250505050565b6000601f19601f8301169050919050565b600061163d826115db565b61164781856115e6565b93506116578185602086016115f7565b61166081611621565b840191505092915050565b600060208201905081810360008301526116858184611632565b905092915050565b600080fd5b600073ffffffffffffffffffffffffffffffffffffffff82169050919050565b60006116bd82611692565b9050919050565b6116cd816116b2565b81146116d857600080fd5b50565b6000813590506116ea816116c4565b92915050565b6000819050919050565b611703816116f0565b811461170e57600080fd5b50565b600081359050611720816116fa565b92915050565b6000806040838503121561173d5761173c61168d565b5b600061174b858286016116db565b925050602061175c85828601611711565b9150509250929050565b60008115159050919050565b61177b81611766565b82525050565b60006020820190506117966000830184611772565b92915050565b6117a5816116f0565b82525050565b60006020820190506117c0600083018461179c565b92915050565b6000806000606084860312156117df576117de61168d565b5b60006117ed868287016116db565b93505060206117fe868287016116db565b925050604061180f86828701611711565b9150509250925092565b600060ff82169050919050565b61182f81611819565b82525050565b600060208201905061184a6000830184611826565b92915050565b6000602082840312156118665761186561168d565b5b6000611874848285016116db565b91505092915050565b6000602082840312156118935761189261168d565b5b60006118a184828501611711565b91505092915050565b600080604083850312156118c1576118c061168d565b5b60006118cf858286016116db565b92505060206118e0858286016116db565b9150509250929050565b7f4e487b7100000000000000000000000000000000000000000000000000000000600052602260045260246000fd5b6000600282049050600182168061193157607f821691505b602082108103611944576119436118ea565b5b50919050565b7f4e487b7100000000000000000000000000000000000000000000000000000000600052601160045260246000fd5b6000611984826116f0565b915061198f836116f0565b92508282019050808211156119a7576119a661194a565b5b92915050565b6000819050919050565b6119c0816119ad565b81146119cb57600080fd5b50565b6000815190506119dd816119b7565b92915050565b6000602082840312156119f9576119f861168d565b5b6000611a07848285016119ce565b91505092915050565b7f496e76616c696420455448207072696365000000000000000000000000000000600082015250565b6000611a466011836115e6565b9150611a5182611a10565b602082019050919050565b60006020820190508181036000830152611a7581611a39565b9050919050565b7f45524332303a2064656372656173656420616c6c6f77616e63652062656c6f7760008201527f207a65726f000000000000000000000000000000000000000000000000000000602082015250565b6000611ad86025836115e6565b9150611ae382611a7c565b604082019050919050565b60006020820190508181036000830152611b0781611acb565b9050919050565b6000611b19826116f0565b9150611b24836116f0565b9250828203905081811115611b3c57611b3b61194a565b5b92915050565b6000611b4d826116f0565b9150611b58836116f0565b9250828202611b66816116f0565b91508282048414831517611b7d57611b7c61194a565b5b5092915050565b600081905092915050565b50565b6000611b9f600083611b84565b9150611baa82611b8f565b600082019050919050565b6000611bc082611b92565b9150819050919050565b7f45524332303a20617070726f76652066726f6d20746865207a65726f2061646460008201527f7265737300000000000000000000000000000000000000000000000000000000602082015250565b6000611c266024836115e6565b9150611c3182611bca565b604082019050919050565b60006020820190508181036000830152611c5581611c19565b9050919050565b7f45524332303a20617070726f766520746f20746865207a65726f20616464726560008201527f7373000000000000000000000000000000000000000000000000000000000000602082015250565b6000611cb86022836115e6565b9150611cc382611c5c565b604082019050919050565b60006020820190508181036000830152611ce781611cab565b9050919050565b7f45524332303a20696e73756666696369656e7420616c6c6f77616e6365000000600082015250565b6000611d24601d836115e6565b9150611d2f82611cee565b602082019050919050565b60006020820190508181036000830152611d5381611d17565b9050919050565b7f45524332303a207472616e736665722066726f6d20746865207a65726f20616460008201527f6472657373000000000000000000000000000000000000000000000000000000602082015250565b6000611db66025836115e6565b9150611dc182611d5a565b604082019050919050565b60006020820190508181036000830152611de581611da9565b9050919050565b7f45524332303a207472616e7366657220746f20746865207a65726f206164647260008201527f6573730000000000000000000000000000000000000000000000000000000000602082015250565b6000611e486023836115e6565b9150611e5382611dec565b604082019050919050565b60006020820190508181036000830152611e7781611e3b565b9050919050565b7f45524332303a207472616e7366657220616d6f756e742065786365656473206260008201527f616c616e63650000000000000000000000000000000000000000000000000000602082015250565b6000611eda6026836115e6565b9150611ee582611e7e565b604082019050919050565b60006020820190508181036000830152611f0981611ecd565b9050919050565b7f4e487b7100000000000000000000000000000000000000000000000000000000600052601260045260246000fd5b6000611f4a826116f0565b9150611f55836116f0565b925082611f6557611f64611f10565b5b828204905092915050565b7f45524332303a206d696e7420746f20746865207a65726f206164647265737300600082015250565b6000611fa6601f836115e6565b9150611fb182611f70565b602082019050919050565b60006020820190508181036000830152611fd581611f99565b9050919050565b7f45524332303a206275726e2066726f6d20746865207a65726f2061646472657360008201527f7300000000000000000000000000000000000000000000000000000000000000602082015250565b60006120386021836115e6565b915061204382611fdc565b604082019050919050565b600060208201905081810360008301526120678161202b565b9050919050565b7f45524332303a206275726e20616d6f756e7420657863656564732062616c616e60008201527f6365000000000000000000000000000000000000000000000000000000000000602082015250565b60006120ca6022836115e6565b91506120d58261206e565b604082019050919050565b600060208201905081810360008301526120f9816120bd565b905091905056fea26469706673582212201574860d356193f8d7f0ed5058fc18946cf63caea9d90c8b6d914db2ac08b01c64736f6c63430008120033",
  "linkReferences": {},
  "deployedLinkReferences": {}
}